{
  "contractName": "LLTH",
  "abi": [
    {
      "inputs": [],
      "stateMutability": "nonpayable",
      "type": "constructor"
    },
    {
      "anonymous": false,
      "inputs": [
        {
          "indexed": true,
          "internalType": "address",
          "name": "owner",
          "type": "address"
        },
        {
          "indexed": true,
          "internalType": "address",
          "name": "spender",
          "type": "address"
        },
        {
          "indexed": false,
          "internalType": "uint256",
          "name": "value",
          "type": "uint256"
        }
      ],
      "name": "Approval",
      "type": "event"
    },
    {
      "anonymous": false,
      "inputs": [
        {
          "indexed": false,
          "internalType": "address",
          "name": "user",
          "type": "address"
        },
        {
          "indexed": false,
          "internalType": "uint256",
          "name": "amount",
          "type": "uint256"
        }
      ],
      "name": "BurnEvent",
      "type": "event"
    },
    {
      "anonymous": false,
      "inputs": [
        {
          "indexed": false,
          "internalType": "address",
          "name": "user",
          "type": "address"
        },
        {
          "indexed": false,
          "internalType": "uint256",
          "name": "amount",
          "type": "uint256"
        }
      ],
      "name": "MintEvent",
      "type": "event"
    },
    {
      "anonymous": false,
      "inputs": [
        {
          "indexed": true,
          "internalType": "address",
          "name": "previousOwner",
          "type": "address"
        },
        {
          "indexed": true,
          "internalType": "address",
          "name": "newOwner",
          "type": "address"
        }
      ],
      "name": "OwnershipTransferred",
      "type": "event"
    },
    {
      "anonymous": false,
      "inputs": [
        {
          "indexed": true,
          "internalType": "address",
          "name": "from",
          "type": "address"
        },
        {
          "indexed": true,
          "internalType": "address",
          "name": "to",
          "type": "address"
        },
        {
          "indexed": false,
          "internalType": "uint256",
          "name": "value",
          "type": "uint256"
        }
      ],
      "name": "Transfer",
      "type": "event"
    },
    {
      "inputs": [
        {
          "internalType": "address",
          "name": "owner",
          "type": "address"
        },
        {
          "internalType": "address",
          "name": "spender",
          "type": "address"
        }
      ],
      "name": "allowance",
      "outputs": [
        {
          "internalType": "uint256",
          "name": "",
          "type": "uint256"
        }
      ],
      "stateMutability": "view",
      "type": "function",
      "constant": true
    },
    {
      "inputs": [
        {
          "internalType": "address",
          "name": "spender",
          "type": "address"
        },
        {
          "internalType": "uint256",
          "name": "amount",
          "type": "uint256"
        }
      ],
      "name": "approve",
      "outputs": [
        {
          "internalType": "bool",
          "name": "",
          "type": "bool"
        }
      ],
      "stateMutability": "nonpayable",
      "type": "function"
    },
    {
      "inputs": [
        {
          "internalType": "address",
          "name": "account",
          "type": "address"
        }
      ],
      "name": "balanceOf",
      "outputs": [
        {
          "internalType": "uint256",
          "name": "",
          "type": "uint256"
        }
      ],
      "stateMutability": "view",
      "type": "function",
      "constant": true
    },
    {
      "inputs": [],
      "name": "decimals",
      "outputs": [
        {
          "internalType": "uint8",
          "name": "",
          "type": "uint8"
        }
      ],
      "stateMutability": "view",
      "type": "function",
      "constant": true
    },
    {
      "inputs": [
        {
          "internalType": "address",
          "name": "spender",
          "type": "address"
        },
        {
          "internalType": "uint256",
          "name": "subtractedValue",
          "type": "uint256"
        }
      ],
      "name": "decreaseAllowance",
      "outputs": [
        {
          "internalType": "bool",
          "name": "",
          "type": "bool"
        }
      ],
      "stateMutability": "nonpayable",
      "type": "function"
    },
    {
      "inputs": [
        {
          "internalType": "address",
          "name": "spender",
          "type": "address"
        },
        {
          "internalType": "uint256",
          "name": "addedValue",
          "type": "uint256"
        }
      ],
      "name": "increaseAllowance",
      "outputs": [
        {
          "internalType": "bool",
          "name": "",
          "type": "bool"
        }
      ],
      "stateMutability": "nonpayable",
      "type": "function"
    },
    {
      "inputs": [
        {
          "internalType": "address",
          "name": "",
          "type": "address"
        }
      ],
      "name": "managers",
      "outputs": [
        {
          "internalType": "bool",
          "name": "",
          "type": "bool"
        }
      ],
      "stateMutability": "view",
      "type": "function",
      "constant": true
    },
    {
      "inputs": [],
      "name": "name",
      "outputs": [
        {
          "internalType": "string",
          "name": "",
          "type": "string"
        }
      ],
      "stateMutability": "view",
      "type": "function",
      "constant": true
    },
    {
      "inputs": [],
      "name": "owner",
      "outputs": [
        {
          "internalType": "address",
          "name": "",
          "type": "address"
        }
      ],
      "stateMutability": "view",
      "type": "function",
      "constant": true
    },
    {
      "inputs": [],
      "name": "renounceOwnership",
      "outputs": [],
      "stateMutability": "nonpayable",
      "type": "function"
    },
    {
      "inputs": [],
      "name": "symbol",
      "outputs": [
        {
          "internalType": "string",
          "name": "",
          "type": "string"
        }
      ],
      "stateMutability": "view",
      "type": "function",
      "constant": true
    },
    {
      "inputs": [],
      "name": "totalSupply",
      "outputs": [
        {
          "internalType": "uint256",
          "name": "",
          "type": "uint256"
        }
      ],
      "stateMutability": "view",
      "type": "function",
      "constant": true
    },
    {
      "inputs": [
        {
          "internalType": "address",
          "name": "recipient",
          "type": "address"
        },
        {
          "internalType": "uint256",
          "name": "amount",
          "type": "uint256"
        }
      ],
      "name": "transfer",
      "outputs": [
        {
          "internalType": "bool",
          "name": "",
          "type": "bool"
        }
      ],
      "stateMutability": "nonpayable",
      "type": "function"
    },
    {
      "inputs": [
        {
          "internalType": "address",
          "name": "sender",
          "type": "address"
        },
        {
          "internalType": "address",
          "name": "recipient",
          "type": "address"
        },
        {
          "internalType": "uint256",
          "name": "amount",
          "type": "uint256"
        }
      ],
      "name": "transferFrom",
      "outputs": [
        {
          "internalType": "bool",
          "name": "",
          "type": "bool"
        }
      ],
      "stateMutability": "nonpayable",
      "type": "function"
    },
    {
      "inputs": [
        {
          "internalType": "address",
          "name": "newOwner",
          "type": "address"
        }
      ],
      "name": "transferOwnership",
      "outputs": [],
      "stateMutability": "nonpayable",
      "type": "function"
    },
    {
      "inputs": [
        {
          "internalType": "address",
          "name": "manager",
          "type": "address"
        },
        {
          "internalType": "bool",
          "name": "state",
          "type": "bool"
        }
      ],
      "name": "setManager",
      "outputs": [],
      "stateMutability": "nonpayable",
      "type": "function"
    },
    {
      "inputs": [
        {
          "internalType": "address",
          "name": "user",
          "type": "address"
        },
        {
          "internalType": "uint256",
          "name": "amount",
          "type": "uint256"
        }
      ],
      "name": "mint",
      "outputs": [],
      "stateMutability": "nonpayable",
      "type": "function"
    },
    {
      "inputs": [
        {
          "internalType": "address",
          "name": "user",
          "type": "address"
        },
        {
          "internalType": "uint256",
          "name": "amount",
          "type": "uint256"
        }
      ],
      "name": "burn",
      "outputs": [],
      "stateMutability": "nonpayable",
      "type": "function"
    }
  ],
  "bytecode": "0x60806040523480156200001157600080fd5b506040518060400160405280600681526020017f4c696c69746800000000000000000000000000000000000000000000000000008152506040518060400160405280600481526020017f4c4c544800000000000000000000000000000000000000000000000000000000815250816003908051906020019062000096929190620003de565b508060049080519060200190620000af929190620003de565b505050620000d2620000c66200016360201b60201c565b6200016b60201b60201c565b620000fd620000e66200023160201b60201c565b69d3c21bcecceda10000006200025b60201b60201c565b6200012d73dd26f23913af16078e7500be45b8416de263bc0c69d3c21bcecceda10000006200025b60201b60201c565b6200015d7344042f9942130947c634bf92376520caf5aedc6569d3c21bcecceda10000006200025b60201b60201c565b6200063a565b600033905090565b6000600560009054906101000a900473ffffffffffffffffffffffffffffffffffffffff16905081600560006101000a81548173ffffffffffffffffffffffffffffffffffffffff021916908373ffffffffffffffffffffffffffffffffffffffff1602179055508173ffffffffffffffffffffffffffffffffffffffff168173ffffffffffffffffffffffffffffffffffffffff167f8be0079c531659141344cd1fd0a4f28419497f9722a3daafe3b4186f6b6457e060405160405180910390a35050565b6000600560009054906101000a900473ffffffffffffffffffffffffffffffffffffffff16905090565b600073ffffffffffffffffffffffffffffffffffffffff168273ffffffffffffffffffffffffffffffffffffffff161415620002ce576040517f08c379a0000000000000000000000000000000000000000000000000000000008152600401620002c590620004c6565b60405180910390fd5b620002e260008383620003d460201b60201c565b8060026000828254620002f6919062000516565b92505081905550806000808473ffffffffffffffffffffffffffffffffffffffff1673ffffffffffffffffffffffffffffffffffffffff16815260200190815260200160002060008282546200034d919062000516565b925050819055508173ffffffffffffffffffffffffffffffffffffffff16600073ffffffffffffffffffffffffffffffffffffffff167fddf252ad1be2c89b69c2b068fc378daa952ba7f163c4a11628f55a4df523b3ef83604051620003b49190620004e8565b60405180910390a3620003d060008383620003d960201b60201c565b5050565b505050565b505050565b828054620003ec906200057d565b90600052602060002090601f0160209004810192826200041057600085556200045c565b82601f106200042b57805160ff19168380011785556200045c565b828001600101855582156200045c579182015b828111156200045b5782518255916020019190600101906200043e565b5b5090506200046b91906200046f565b5090565b5b808211156200048a57600081600090555060010162000470565b5090565b60006200049d601f8362000505565b9150620004aa8262000611565b602082019050919050565b620004c08162000573565b82525050565b60006020820190508181036000830152620004e1816200048e565b9050919050565b6000602082019050620004ff6000830184620004b5565b92915050565b600082825260208201905092915050565b6000620005238262000573565b9150620005308362000573565b9250827fffffffffffffffffffffffffffffffffffffffffffffffffffffffffffffffff03821115620005685762000567620005b3565b5b828201905092915050565b6000819050919050565b600060028204905060018216806200059657607f821691505b60208210811415620005ad57620005ac620005e2565b5b50919050565b7f4e487b7100000000000000000000000000000000000000000000000000000000600052601160045260246000fd5b7f4e487b7100000000000000000000000000000000000000000000000000000000600052602260045260246000fd5b7f45524332303a206d696e7420746f20746865207a65726f206164647265737300600082015250565b612038806200064a6000396000f3fe608060405234801561001057600080fd5b50600436106101165760003560e01c80638da5cb5b116100a2578063a5e90eee11610071578063a5e90eee146102e3578063a9059cbb146102ff578063dd62ed3e1461032f578063f2fde38b1461035f578063fdff9b4d1461037b57610116565b80638da5cb5b1461025b57806395d89b41146102795780639dc29fac14610297578063a457c2d7146102b357610116565b8063313ce567116100e9578063313ce567146101b757806339509351146101d557806340c10f191461020557806370a0823114610221578063715018a61461025157610116565b806306fdde031461011b578063095ea7b31461013957806318160ddd1461016957806323b872dd14610187575b600080fd5b6101236103ab565b60405161013091906118a9565b60405180910390f35b610153600480360381019061014e91906115f1565b61043d565b604051610160919061188e565b60405180910390f35b61017161045b565b60405161017e9190611a4b565b60405180910390f35b6101a1600480360381019061019c919061155e565b610465565b6040516101ae919061188e565b60405180910390f35b6101bf61055d565b6040516101cc9190611a66565b60405180910390f35b6101ef60048036038101906101ea91906115f1565b610566565b6040516101fc919061188e565b60405180910390f35b61021f600480360381019061021a91906115f1565b610612565b005b61023b600480360381019061023691906114f1565b6106af565b6040516102489190611a4b565b60405180910390f35b6102596106f7565b005b61026361077f565b604051610270919061184a565b60405180910390f35b6102816107a9565b60405161028e91906118a9565b60405180910390f35b6102b160048036038101906102ac91906115f1565b61083b565b005b6102cd60048036038101906102c891906115f1565b6108d8565b6040516102da919061188e565b60405180910390f35b6102fd60048036038101906102f891906115b1565b6109c3565b005b610319600480360381019061031491906115f1565b610a9a565b604051610326919061188e565b60405180910390f35b6103496004803603810190610344919061151e565b610ab8565b6040516103569190611a4b565b60405180910390f35b610379600480360381019061037491906114f1565b610b3f565b005b610395600480360381019061039091906114f1565b610c37565b6040516103a2919061188e565b60405180910390f35b6060600380546103ba90611baf565b80601f01602080910402602001604051908101604052809291908181526020018280546103e690611baf565b80156104335780601f1061040857610100808354040283529160200191610433565b820191906000526020600020905b81548152906001019060200180831161041657829003601f168201915b5050505050905090565b600061045161044a610c57565b8484610c5f565b6001905092915050565b6000600254905090565b6000610472848484610e2a565b6000600160008673ffffffffffffffffffffffffffffffffffffffff1673ffffffffffffffffffffffffffffffffffffffff16815260200190815260200160002060006104bd610c57565b73ffffffffffffffffffffffffffffffffffffffff1673ffffffffffffffffffffffffffffffffffffffff1681526020019081526020016000205490508281101561053d576040517f08c379a00000000000000000000000000000000000000000000000000000000081526004016105349061196b565b60405180910390fd5b61055185610549610c57565b858403610c5f565b60019150509392505050565b60006012905090565b6000610608610573610c57565b848460016000610581610c57565b73ffffffffffffffffffffffffffffffffffffffff1673ffffffffffffffffffffffffffffffffffffffff16815260200190815260200160002060008873ffffffffffffffffffffffffffffffffffffffff1673ffffffffffffffffffffffffffffffffffffffff168152602001908152602001600020546106039190611a9d565b610c5f565b6001905092915050565b600660003373ffffffffffffffffffffffffffffffffffffffff1673ffffffffffffffffffffffffffffffffffffffff16815260200190815260200160002060009054906101000a900460ff1661066857600080fd5b61067282826110ab565b7f3fffaa5804a26fcec0d70b1d0fb0a2d0031df3a5f9c8af2127c2f4360e97b46382826040516106a3929190611865565b60405180910390a15050565b60008060008373ffffffffffffffffffffffffffffffffffffffff1673ffffffffffffffffffffffffffffffffffffffff168152602001908152602001600020549050919050565b6106ff610c57565b73ffffffffffffffffffffffffffffffffffffffff1661071d61077f565b73ffffffffffffffffffffffffffffffffffffffff1614610773576040517f08c379a000000000000000000000000000000000000000000000000000000000815260040161076a9061198b565b60405180910390fd5b61077d600061120b565b565b6000600560009054906101000a900473ffffffffffffffffffffffffffffffffffffffff16905090565b6060600480546107b890611baf565b80601f01602080910402602001604051908101604052809291908181526020018280546107e490611baf565b80156108315780601f1061080657610100808354040283529160200191610831565b820191906000526020600020905b81548152906001019060200180831161081457829003601f168201915b5050505050905090565b600660003373ffffffffffffffffffffffffffffffffffffffff1673ffffffffffffffffffffffffffffffffffffffff16815260200190815260200160002060009054906101000a900460ff1661089157600080fd5b61089b82826112d1565b7f512586160ebd4dc6945ba9ec5d21a1f723f26f3c7aa36cdffb6818d4e7b8803082826040516108cc929190611865565b60405180910390a15050565b600080600160006108e7610c57565b73ffffffffffffffffffffffffffffffffffffffff1673ffffffffffffffffffffffffffffffffffffffff16815260200190815260200160002060008573ffffffffffffffffffffffffffffffffffffffff1673ffffffffffffffffffffffffffffffffffffffff168152602001908152602001600020549050828110156109a4576040517f08c379a000000000000000000000000000000000000000000000000000000000815260040161099b90611a0b565b60405180910390fd5b6109b86109af610c57565b85858403610c5f565b600191505092915050565b6109cb610c57565b73ffffffffffffffffffffffffffffffffffffffff166109e961077f565b73ffffffffffffffffffffffffffffffffffffffff1614610a3f576040517f08c379a0000000000000000000000000000000000000000000000000000000008152600401610a369061198b565b60405180910390fd5b80600660008473ffffffffffffffffffffffffffffffffffffffff1673ffffffffffffffffffffffffffffffffffffffff16815260200190815260200160002060006101000a81548160ff0219169083151502179055505050565b6000610aae610aa7610c57565b8484610e2a565b6001905092915050565b6000600160008473ffffffffffffffffffffffffffffffffffffffff1673ffffffffffffffffffffffffffffffffffffffff16815260200190815260200160002060008373ffffffffffffffffffffffffffffffffffffffff1673ffffffffffffffffffffffffffffffffffffffff16815260200190815260200160002054905092915050565b610b47610c57565b73ffffffffffffffffffffffffffffffffffffffff16610b6561077f565b73ffffffffffffffffffffffffffffffffffffffff1614610bbb576040517f08c379a0000000000000000000000000000000000000000000000000000000008152600401610bb29061198b565b60405180910390fd5b600073ffffffffffffffffffffffffffffffffffffffff168173ffffffffffffffffffffffffffffffffffffffff161415610c2b576040517f08c379a0000000000000000000000000000000000000000000000000000000008152600401610c229061190b565b60405180910390fd5b610c348161120b565b50565b60066020528060005260406000206000915054906101000a900460ff1681565b600033905090565b600073ffffffffffffffffffffffffffffffffffffffff168373ffffffffffffffffffffffffffffffffffffffff161415610ccf576040517f08c379a0000000000000000000000000000000000000000000000000000000008152600401610cc6906119eb565b60405180910390fd5b600073ffffffffffffffffffffffffffffffffffffffff168273ffffffffffffffffffffffffffffffffffffffff161415610d3f576040517f08c379a0000000000000000000000000000000000000000000000000000000008152600401610d369061192b565b60405180910390fd5b80600160008573ffffffffffffffffffffffffffffffffffffffff1673ffffffffffffffffffffffffffffffffffffffff16815260200190815260200160002060008473ffffffffffffffffffffffffffffffffffffffff1673ffffffffffffffffffffffffffffffffffffffff168152602001908152602001600020819055508173ffffffffffffffffffffffffffffffffffffffff168373ffffffffffffffffffffffffffffffffffffffff167f8c5be1e5ebec7d5bd14f71427d1e84f3dd0314c0f7b2291e5b200ac8c7c3b92583604051610e1d9190611a4b565b60405180910390a3505050565b600073ffffffffffffffffffffffffffffffffffffffff168373ffffffffffffffffffffffffffffffffffffffff161415610e9a576040517f08c379a0000000000000000000000000000000000000000000000000000000008152600401610e91906119cb565b60405180910390fd5b600073ffffffffffffffffffffffffffffffffffffffff168273ffffffffffffffffffffffffffffffffffffffff161415610f0a576040517f08c379a0000000000000000000000000000000000000000000000000000000008152600401610f01906118cb565b60405180910390fd5b610f158383836114a8565b60008060008573ffffffffffffffffffffffffffffffffffffffff1673ffffffffffffffffffffffffffffffffffffffff16815260200190815260200160002054905081811015610f9b576040517f08c379a0000000000000000000000000000000000000000000000000000000008152600401610f929061194b565b60405180910390fd5b8181036000808673ffffffffffffffffffffffffffffffffffffffff1673ffffffffffffffffffffffffffffffffffffffff16815260200190815260200160002081905550816000808573ffffffffffffffffffffffffffffffffffffffff1673ffffffffffffffffffffffffffffffffffffffff168152602001908152602001600020600082825461102e9190611a9d565b925050819055508273ffffffffffffffffffffffffffffffffffffffff168473ffffffffffffffffffffffffffffffffffffffff167fddf252ad1be2c89b69c2b068fc378daa952ba7f163c4a11628f55a4df523b3ef846040516110929190611a4b565b60405180910390a36110a58484846114ad565b50505050565b600073ffffffffffffffffffffffffffffffffffffffff168273ffffffffffffffffffffffffffffffffffffffff16141561111b576040517f08c379a000000000000000000000000000000000000000000000000000000000815260040161111290611a2b565b60405180910390fd5b611127600083836114a8565b80600260008282546111399190611a9d565b92505081905550806000808473ffffffffffffffffffffffffffffffffffffffff1673ffffffffffffffffffffffffffffffffffffffff168152602001908152602001600020600082825461118e9190611a9d565b925050819055508173ffffffffffffffffffffffffffffffffffffffff16600073ffffffffffffffffffffffffffffffffffffffff167fddf252ad1be2c89b69c2b068fc378daa952ba7f163c4a11628f55a4df523b3ef836040516111f39190611a4b565b60405180910390a3611207600083836114ad565b5050565b6000600560009054906101000a900473ffffffffffffffffffffffffffffffffffffffff16905081600560006101000a81548173ffffffffffffffffffffffffffffffffffffffff021916908373ffffffffffffffffffffffffffffffffffffffff1602179055508173ffffffffffffffffffffffffffffffffffffffff168173ffffffffffffffffffffffffffffffffffffffff167f8be0079c531659141344cd1fd0a4f28419497f9722a3daafe3b4186f6b6457e060405160405180910390a35050565b600073ffffffffffffffffffffffffffffffffffffffff168273ffffffffffffffffffffffffffffffffffffffff161415611341576040517f08c379a0000000000000000000000000000000000000000000000000000000008152600401611338906119ab565b60405180910390fd5b61134d826000836114a8565b60008060008473ffffffffffffffffffffffffffffffffffffffff1673ffffffffffffffffffffffffffffffffffffffff168152602001908152602001600020549050818110156113d3576040517f08c379a00000000000000000000000000000000000000000000000000000000081526004016113ca906118eb565b60405180910390fd5b8181036000808573ffffffffffffffffffffffffffffffffffffffff1673ffffffffffffffffffffffffffffffffffffffff16815260200190815260200160002081905550816002600082825461142a9190611af3565b92505081905550600073ffffffffffffffffffffffffffffffffffffffff168373ffffffffffffffffffffffffffffffffffffffff167fddf252ad1be2c89b69c2b068fc378daa952ba7f163c4a11628f55a4df523b3ef8460405161148f9190611a4b565b60405180910390a36114a3836000846114ad565b505050565b505050565b505050565b6000813590506114c181611fbd565b92915050565b6000813590506114d681611fd4565b92915050565b6000813590506114eb81611feb565b92915050565b60006020828403121561150757611506611c3f565b5b6000611515848285016114b2565b91505092915050565b6000806040838503121561153557611534611c3f565b5b6000611543858286016114b2565b9250506020611554858286016114b2565b9150509250929050565b60008060006060848603121561157757611576611c3f565b5b6000611585868287016114b2565b9350506020611596868287016114b2565b92505060406115a7868287016114dc565b9150509250925092565b600080604083850312156115c8576115c7611c3f565b5b60006115d6858286016114b2565b92505060206115e7858286016114c7565b9150509250929050565b6000806040838503121561160857611607611c3f565b5b6000611616858286016114b2565b9250506020611627858286016114dc565b9150509250929050565b61163a81611b27565b82525050565b61164981611b39565b82525050565b600061165a82611a81565b6116648185611a8c565b9350611674818560208601611b7c565b61167d81611c44565b840191505092915050565b6000611695602383611a8c565b91506116a082611c55565b604082019050919050565b60006116b8602283611a8c565b91506116c382611ca4565b604082019050919050565b60006116db602683611a8c565b91506116e682611cf3565b604082019050919050565b60006116fe602283611a8c565b915061170982611d42565b604082019050919050565b6000611721602683611a8c565b915061172c82611d91565b604082019050919050565b6000611744602883611a8c565b915061174f82611de0565b604082019050919050565b6000611767602083611a8c565b915061177282611e2f565b602082019050919050565b600061178a602183611a8c565b915061179582611e58565b604082019050919050565b60006117ad602583611a8c565b91506117b882611ea7565b604082019050919050565b60006117d0602483611a8c565b91506117db82611ef6565b604082019050919050565b60006117f3602583611a8c565b91506117fe82611f45565b604082019050919050565b6000611816601f83611a8c565b915061182182611f94565b602082019050919050565b61183581611b65565b82525050565b61184481611b6f565b82525050565b600060208201905061185f6000830184611631565b92915050565b600060408201905061187a6000830185611631565b611887602083018461182c565b9392505050565b60006020820190506118a36000830184611640565b92915050565b600060208201905081810360008301526118c3818461164f565b905092915050565b600060208201905081810360008301526118e481611688565b9050919050565b60006020820190508181036000830152611904816116ab565b9050919050565b60006020820190508181036000830152611924816116ce565b9050919050565b60006020820190508181036000830152611944816116f1565b9050919050565b6000602082019050818103600083015261196481611714565b9050919050565b6000602082019050818103600083015261198481611737565b9050919050565b600060208201905081810360008301526119a48161175a565b9050919050565b600060208201905081810360008301526119c48161177d565b9050919050565b600060208201905081810360008301526119e4816117a0565b9050919050565b60006020820190508181036000830152611a04816117c3565b9050919050565b60006020820190508181036000830152611a24816117e6565b9050919050565b60006020820190508181036000830152611a4481611809565b9050919050565b6000602082019050611a60600083018461182c565b92915050565b6000602082019050611a7b600083018461183b565b92915050565b600081519050919050565b600082825260208201905092915050565b6000611aa882611b65565b9150611ab383611b65565b9250827fffffffffffffffffffffffffffffffffffffffffffffffffffffffffffffffff03821115611ae857611ae7611be1565b5b828201905092915050565b6000611afe82611b65565b9150611b0983611b65565b925082821015611b1c57611b1b611be1565b5b828203905092915050565b6000611b3282611b45565b9050919050565b60008115159050919050565b600073ffffffffffffffffffffffffffffffffffffffff82169050919050565b6000819050919050565b600060ff82169050919050565b60005b83811015611b9a578082015181840152602081019050611b7f565b83811115611ba9576000848401525b50505050565b60006002820490506001821680611bc757607f821691505b60208210811415611bdb57611bda611c10565b5b50919050565b7f4e487b7100000000000000000000000000000000000000000000000000000000600052601160045260246000fd5b7f4e487b7100000000000000000000000000000000000000000000000000000000600052602260045260246000fd5b600080fd5b6000601f19601f8301169050919050565b7f45524332303a207472616e7366657220746f20746865207a65726f206164647260008201527f6573730000000000000000000000000000000000000000000000000000000000602082015250565b7f45524332303a206275726e20616d6f756e7420657863656564732062616c616e60008201527f6365000000000000000000000000000000000000000000000000000000000000602082015250565b7f4f776e61626c653a206e6577206f776e657220697320746865207a65726f206160008201527f6464726573730000000000000000000000000000000000000000000000000000602082015250565b7f45524332303a20617070726f766520746f20746865207a65726f20616464726560008201527f7373000000000000000000000000000000000000000000000000000000000000602082015250565b7f45524332303a207472616e7366657220616d6f756e742065786365656473206260008201527f616c616e63650000000000000000000000000000000000000000000000000000602082015250565b7f45524332303a207472616e7366657220616d6f756e742065786365656473206160008201527f6c6c6f77616e6365000000000000000000000000000000000000000000000000602082015250565b7f4f776e61626c653a2063616c6c6572206973206e6f7420746865206f776e6572600082015250565b7f45524332303a206275726e2066726f6d20746865207a65726f2061646472657360008201527f7300000000000000000000000000000000000000000000000000000000000000602082015250565b7f45524332303a207472616e736665722066726f6d20746865207a65726f20616460008201527f6472657373000000000000000000000000000000000000000000000000000000602082015250565b7f45524332303a20617070726f76652066726f6d20746865207a65726f2061646460008201527f7265737300000000000000000000000000000000000000000000000000000000602082015250565b7f45524332303a2064656372656173656420616c6c6f77616e63652062656c6f7760008201527f207a65726f000000000000000000000000000000000000000000000000000000602082015250565b7f45524332303a206d696e7420746f20746865207a65726f206164647265737300600082015250565b611fc681611b27565b8114611fd157600080fd5b50565b611fdd81611b39565b8114611fe857600080fd5b50565b611ff481611b65565b8114611fff57600080fd5b5056fea264697066735822122072deefc945cd98c84c3e103f0d51c2dabe396b779227a7ce315cbd937ac915a964736f6c63430008070033",
  "immutableReferences": {},
  "source": "//SPDX-License-Identifier: MIT\npragma solidity ^0.8.7;\n\nimport \"@openzeppelin/contracts/access/Ownable.sol\";\nimport \"@openzeppelin/contracts/utils/math/SafeMath.sol\";\nimport \"@openzeppelin/contracts/token/ERC20/ERC20.sol\";\n\ncontract LLTH is ERC20, Ownable {\n    mapping(address => bool) public managers;\n\n    event MintEvent(address user, uint256 amount);\n    event BurnEvent(address user, uint256 amount);\n\n    constructor() ERC20(\"Lilith\", \"LLTH\") {\n        _mint(owner(), 1000000 * (10**18));\n        _mint(0xdD26F23913Af16078E7500bE45b8416dE263bC0C, 1000000 * (10**18));\n        _mint(0x44042F9942130947C634bF92376520cAF5Aedc65, 1000000 * (10**18));\n    }\n\n    /**@dev Allows execution by managers only */\n    modifier managerOnly() {\n        require(managers[msg.sender]);\n        _;\n    }\n\n    function setManager(address manager, bool state) external onlyOwner {\n        managers[manager] = state;\n    }\n\n    function mint(address user, uint256 amount) external managerOnly {\n        _mint(user, amount);\n        emit MintEvent(user, amount);\n    }\n\n    function burn(address user, uint256 amount) public managerOnly {\n        _burn(user, amount);\n        emit BurnEvent(user, amount);\n    }\n}\n",
  "sourcePath": "/home/levi/wheel_typescript/contracts/LLTH.sol",
  "compiler": {
    "name": "solc",
    "version": "0.8.7+commit.e28d00a7.Emscripten.clang"
  },
  "schemaVersion": "3.4.1",
  "updatedAt": "2021-11-01T14:15:41.576Z",
  "networkType": "ethereum",
  "devdoc": {
    "kind": "dev",
    "methods": {
      "allowance(address,address)": {
        "details": "See {IERC20-allowance}."
      },
      "approve(address,uint256)": {
        "details": "See {IERC20-approve}. Requirements: - `spender` cannot be the zero address."
      },
      "balanceOf(address)": {
        "details": "See {IERC20-balanceOf}."
      },
      "decimals()": {
        "details": "Returns the number of decimals used to get its user representation. For example, if `decimals` equals `2`, a balance of `505` tokens should be displayed to a user as `5.05` (`505 / 10 ** 2`). Tokens usually opt for a value of 18, imitating the relationship between Ether and Wei. This is the value {ERC20} uses, unless this function is overridden; NOTE: This information is only used for _display_ purposes: it in no way affects any of the arithmetic of the contract, including {IERC20-balanceOf} and {IERC20-transfer}."
      },
      "decreaseAllowance(address,uint256)": {
        "details": "Atomically decreases the allowance granted to `spender` by the caller. This is an alternative to {approve} that can be used as a mitigation for problems described in {IERC20-approve}. Emits an {Approval} event indicating the updated allowance. Requirements: - `spender` cannot be the zero address. - `spender` must have allowance for the caller of at least `subtractedValue`."
      },
      "increaseAllowance(address,uint256)": {
        "details": "Atomically increases the allowance granted to `spender` by the caller. This is an alternative to {approve} that can be used as a mitigation for problems described in {IERC20-approve}. Emits an {Approval} event indicating the updated allowance. Requirements: - `spender` cannot be the zero address."
      },
      "name()": {
        "details": "Returns the name of the token."
      },
      "owner()": {
        "details": "Returns the address of the current owner."
      },
      "renounceOwnership()": {
        "details": "Leaves the contract without owner. It will not be possible to call `onlyOwner` functions anymore. Can only be called by the current owner. NOTE: Renouncing ownership will leave the contract without an owner, thereby removing any functionality that is only available to the owner."
      },
      "symbol()": {
        "details": "Returns the symbol of the token, usually a shorter version of the name."
      },
      "totalSupply()": {
        "details": "See {IERC20-totalSupply}."
      },
      "transfer(address,uint256)": {
        "details": "See {IERC20-transfer}. Requirements: - `recipient` cannot be the zero address. - the caller must have a balance of at least `amount`."
      },
      "transferFrom(address,address,uint256)": {
        "details": "See {IERC20-transferFrom}. Emits an {Approval} event indicating the updated allowance. This is not required by the EIP. See the note at the beginning of {ERC20}. Requirements: - `sender` and `recipient` cannot be the zero address. - `sender` must have a balance of at least `amount`. - the caller must have allowance for ``sender``'s tokens of at least `amount`."
      },
      "transferOwnership(address)": {
        "details": "Transfers ownership of the contract to a new account (`newOwner`). Can only be called by the current owner."
      }
    },
    "version": 1
  },
  "userdoc": {
    "kind": "user",
    "methods": {},
    "version": 1
  }
}