{
  "contractName": "Wheel",
  "abi": [
    {
      "inputs": [
        {
          "internalType": "address",
          "name": "LLTH_",
          "type": "address"
        }
      ],
      "stateMutability": "nonpayable",
      "type": "constructor"
    },
    {
      "anonymous": false,
      "inputs": [
        {
          "indexed": true,
          "internalType": "address",
          "name": "previousOwner",
          "type": "address"
        },
        {
          "indexed": true,
          "internalType": "address",
          "name": "newOwner",
          "type": "address"
        }
      ],
      "name": "OwnershipTransferred",
      "type": "event"
    },
    {
      "anonymous": false,
      "inputs": [
        {
          "indexed": false,
          "internalType": "bytes32",
          "name": "requestId",
          "type": "bytes32"
        },
        {
          "indexed": false,
          "internalType": "uint256",
          "name": "randomNumber",
          "type": "uint256"
        }
      ],
      "name": "RandomIsArrived",
      "type": "event"
    },
    {
      "anonymous": false,
      "inputs": [
        {
          "indexed": false,
          "internalType": "address",
          "name": "player",
          "type": "address"
        },
        {
          "indexed": false,
          "internalType": "bytes32",
          "name": "requestId",
          "type": "bytes32"
        }
      ],
      "name": "RequestIdIsCreated",
      "type": "event"
    },
    {
      "inputs": [],
      "name": "LINKToken",
      "outputs": [
        {
          "internalType": "address",
          "name": "",
          "type": "address"
        }
      ],
      "stateMutability": "view",
      "type": "function",
      "constant": true
    },
    {
      "inputs": [],
      "name": "VRFCoordinator",
      "outputs": [
        {
          "internalType": "address",
          "name": "",
          "type": "address"
        }
      ],
      "stateMutability": "view",
      "type": "function",
      "constant": true
    },
    {
      "inputs": [
        {
          "internalType": "address",
          "name": "",
          "type": "address"
        }
      ],
      "name": "addressToRequestId",
      "outputs": [
        {
          "internalType": "bytes32",
          "name": "",
          "type": "bytes32"
        }
      ],
      "stateMutability": "view",
      "type": "function",
      "constant": true
    },
    {
      "inputs": [
        {
          "internalType": "address",
          "name": "",
          "type": "address"
        }
      ],
      "name": "addressToSpawn",
      "outputs": [
        {
          "internalType": "uint256",
          "name": "",
          "type": "uint256"
        }
      ],
      "stateMutability": "view",
      "type": "function",
      "constant": true
    },
    {
      "inputs": [
        {
          "internalType": "address",
          "name": "",
          "type": "address"
        }
      ],
      "name": "bets",
      "outputs": [
        {
          "internalType": "uint256",
          "name": "",
          "type": "uint256"
        }
      ],
      "stateMutability": "view",
      "type": "function",
      "constant": true
    },
    {
      "inputs": [],
      "name": "fee",
      "outputs": [
        {
          "internalType": "uint256",
          "name": "",
          "type": "uint256"
        }
      ],
      "stateMutability": "view",
      "type": "function",
      "constant": true
    },
    {
      "inputs": [],
      "name": "keyHash",
      "outputs": [
        {
          "internalType": "bytes32",
          "name": "",
          "type": "bytes32"
        }
      ],
      "stateMutability": "view",
      "type": "function",
      "constant": true
    },
    {
      "inputs": [],
      "name": "maxBet",
      "outputs": [
        {
          "internalType": "uint256",
          "name": "",
          "type": "uint256"
        }
      ],
      "stateMutability": "view",
      "type": "function",
      "constant": true
    },
    {
      "inputs": [],
      "name": "maxMultiplier",
      "outputs": [
        {
          "internalType": "uint256",
          "name": "",
          "type": "uint256"
        }
      ],
      "stateMutability": "view",
      "type": "function",
      "constant": true
    },
    {
      "inputs": [],
      "name": "minMultiplier",
      "outputs": [
        {
          "internalType": "uint256",
          "name": "",
          "type": "uint256"
        }
      ],
      "stateMutability": "view",
      "type": "function",
      "constant": true
    },
    {
      "inputs": [
        {
          "internalType": "address",
          "name": "",
          "type": "address"
        }
      ],
      "name": "multipliers",
      "outputs": [
        {
          "internalType": "uint256",
          "name": "",
          "type": "uint256"
        }
      ],
      "stateMutability": "view",
      "type": "function",
      "constant": true
    },
    {
      "inputs": [],
      "name": "owner",
      "outputs": [
        {
          "internalType": "address",
          "name": "",
          "type": "address"
        }
      ],
      "stateMutability": "view",
      "type": "function",
      "constant": true
    },
    {
      "inputs": [],
      "name": "payoutMultiplier",
      "outputs": [
        {
          "internalType": "uint256",
          "name": "",
          "type": "uint256"
        }
      ],
      "stateMutability": "view",
      "type": "function",
      "constant": true
    },
    {
      "inputs": [
        {
          "internalType": "bytes32",
          "name": "requestId",
          "type": "bytes32"
        },
        {
          "internalType": "uint256",
          "name": "randomness",
          "type": "uint256"
        }
      ],
      "name": "rawFulfillRandomness",
      "outputs": [],
      "stateMutability": "nonpayable",
      "type": "function"
    },
    {
      "inputs": [],
      "name": "renounceOwnership",
      "outputs": [],
      "stateMutability": "nonpayable",
      "type": "function"
    },
    {
      "inputs": [
        {
          "internalType": "bytes32",
          "name": "",
          "type": "bytes32"
        }
      ],
      "name": "requestIdToAddress",
      "outputs": [
        {
          "internalType": "address",
          "name": "",
          "type": "address"
        }
      ],
      "stateMutability": "view",
      "type": "function",
      "constant": true
    },
    {
      "inputs": [
        {
          "internalType": "bytes32",
          "name": "",
          "type": "bytes32"
        }
      ],
      "name": "requestIdToRandomNumber",
      "outputs": [
        {
          "internalType": "uint256",
          "name": "",
          "type": "uint256"
        }
      ],
      "stateMutability": "view",
      "type": "function",
      "constant": true
    },
    {
      "inputs": [
        {
          "internalType": "address",
          "name": "newOwner",
          "type": "address"
        }
      ],
      "name": "transferOwnership",
      "outputs": [],
      "stateMutability": "nonpayable",
      "type": "function"
    },
    {
      "inputs": [
        {
          "internalType": "address",
          "name": "player",
          "type": "address"
        }
      ],
      "name": "requestIdOf",
      "outputs": [
        {
          "internalType": "bytes32",
          "name": "",
          "type": "bytes32"
        }
      ],
      "stateMutability": "view",
      "type": "function",
      "constant": true
    },
    {
      "inputs": [],
      "name": "getBalance",
      "outputs": [
        {
          "internalType": "uint256",
          "name": "",
          "type": "uint256"
        }
      ],
      "stateMutability": "view",
      "type": "function",
      "constant": true
    },
    {
      "inputs": [
        {
          "internalType": "address",
          "name": "player",
          "type": "address"
        }
      ],
      "name": "betOf",
      "outputs": [
        {
          "internalType": "uint256",
          "name": "",
          "type": "uint256"
        }
      ],
      "stateMutability": "view",
      "type": "function",
      "constant": true
    },
    {
      "inputs": [
        {
          "internalType": "address",
          "name": "LLTH_",
          "type": "address"
        }
      ],
      "name": "setLLTH",
      "outputs": [],
      "stateMutability": "nonpayable",
      "type": "function"
    },
    {
      "inputs": [
        {
          "internalType": "uint256",
          "name": "minMultiplier_",
          "type": "uint256"
        }
      ],
      "name": "setMinMultiplier",
      "outputs": [],
      "stateMutability": "nonpayable",
      "type": "function"
    },
    {
      "inputs": [
        {
          "internalType": "uint256",
          "name": "maxMultiplier_",
          "type": "uint256"
        }
      ],
      "name": "setMaxMultiplier",
      "outputs": [],
      "stateMutability": "nonpayable",
      "type": "function"
    },
    {
      "inputs": [
        {
          "internalType": "uint256",
          "name": "maxBet_",
          "type": "uint256"
        }
      ],
      "name": "setMaxBet",
      "outputs": [],
      "stateMutability": "nonpayable",
      "type": "function"
    },
    {
      "inputs": [
        {
          "internalType": "uint256",
          "name": "payoutMultiplier_",
          "type": "uint256"
        }
      ],
      "name": "setPayoutMultiplier",
      "outputs": [],
      "stateMutability": "nonpayable",
      "type": "function"
    },
    {
      "inputs": [
        {
          "internalType": "uint256",
          "name": "bet",
          "type": "uint256"
        },
        {
          "internalType": "uint256",
          "name": "multiplier",
          "type": "uint256"
        },
        {
          "internalType": "uint256",
          "name": "spawn",
          "type": "uint256"
        }
      ],
      "name": "placeBet",
      "outputs": [],
      "stateMutability": "nonpayable",
      "type": "function"
    },
    {
      "inputs": [
        {
          "internalType": "uint256",
          "name": "amount",
          "type": "uint256"
        }
      ],
      "name": "withdraw",
      "outputs": [],
      "stateMutability": "nonpayable",
      "type": "function"
    },
    {
      "inputs": [
        {
          "internalType": "address",
          "name": "player",
          "type": "address"
        }
      ],
      "name": "getWinningMultiplier",
      "outputs": [
        {
          "internalType": "uint256",
          "name": "",
          "type": "uint256"
        }
      ],
      "stateMutability": "view",
      "type": "function",
      "constant": true
    }
  ],
  "bytecode": "0x60c0604052600c60035569021e19e0c9bab24000006004556001600555600d600655738c7382f9d8f56b33781fe506e897a4f1e2d17255600960006101000a81548173ffffffffffffffffffffffffffffffffffffffff021916908373ffffffffffffffffffffffffffffffffffffffff16021790555073326c977e6efc84e512bb9c30f76e30c160ed06fb600a60006101000a81548173ffffffffffffffffffffffffffffffffffffffff021916908373ffffffffffffffffffffffffffffffffffffffff160217905550348015620000d857600080fd5b50604051620030b2380380620030b28339818101604052810190620000fe919062000336565b600960009054906101000a900473ffffffffffffffffffffffffffffffffffffffff16600a60009054906101000a900473ffffffffffffffffffffffffffffffffffffffff1662000164620001586200025360201b60201c565b6200025b60201b60201c565b8173ffffffffffffffffffffffffffffffffffffffff1660a08173ffffffffffffffffffffffffffffffffffffffff1660601b815250508073ffffffffffffffffffffffffffffffffffffffff1660808173ffffffffffffffffffffffffffffffffffffffff1660601b81525050505080600260006101000a81548173ffffffffffffffffffffffffffffffffffffffff021916908373ffffffffffffffffffffffffffffffffffffffff1602179055507f6e75b569a01ef56d18cab6a8e71e6600d6ce853834d4a5748b720d06f878b3a460001b600881905550655af3107a400060078190555050620003bb565b600033905090565b60008060009054906101000a900473ffffffffffffffffffffffffffffffffffffffff169050816000806101000a81548173ffffffffffffffffffffffffffffffffffffffff021916908373ffffffffffffffffffffffffffffffffffffffff1602179055508173ffffffffffffffffffffffffffffffffffffffff168173ffffffffffffffffffffffffffffffffffffffff167f8be0079c531659141344cd1fd0a4f28419497f9722a3daafe3b4186f6b6457e060405160405180910390a35050565b6000815190506200033081620003a1565b92915050565b6000602082840312156200034f576200034e6200039c565b5b60006200035f848285016200031f565b91505092915050565b600062000375826200037c565b9050919050565b600073ffffffffffffffffffffffffffffffffffffffff82169050919050565b600080fd5b620003ac8162000368565b8114620003b857600080fd5b50565b60805160601c60a05160601c612cbd620003f560003960008181610e670152611ed501526000818161170d0152611e990152612cbd6000f3fe608060405234801561001057600080fd5b50600436106101cf5760003560e01c806379a33466116101045780639fd751c7116100a2578063ddca3f4311610071578063ddca3f4314610542578063e71c969714610560578063f2fde38b1461057c578063f4e9775d14610598576101cf565b80639fd751c7146104a8578063a24e0d87146104c4578063ac524f3d146104e2578063bc64beee14610512576101cf565b806389a78f1a116100de57806389a78f1a1461040e5780638da5cb5b1461043e57806394985ddd1461045c5780639bef920014610478576101cf565b806379a33466146103a65780637c777806146103d6578063881eff1e146103f2576101cf565b8063497358c9116101715780635ae467741161014b5780635ae46774146103305780635c8127371461036057806361728f391461037e578063715018a61461039c576101cf565b8063497358c9146102b45780635017efb6146102d05780635079539914610300576101cf565b80632e1a7d4d116101ad5780632e1a7d4d1461022c5780632e5b21681461024857806333b60863146102665780634288d75914610284576101cf565b806301526a43146101d45780630187aea0146101f057806312065fe01461020e575b600080fd5b6101ee60048036038101906101e99190612195565b6105b6565b005b6101f861063c565b604051610205919061274e565b60405180910390f35b610216610642565b604051610223919061274e565b60405180910390f35b61024660048036038101906102419190612195565b6106f4565b005b610250610917565b60405161025d919061274e565b60405180910390f35b61026e61091d565b60405161027b9190612483565b60405180910390f35b61029e600480360381019061029991906120ce565b610943565b6040516102ab919061274e565b60405180910390f35b6102ce60048036038101906102c99190612195565b6109c5565b005b6102ea60048036038101906102e591906120ce565b610a4b565b6040516102f79190612565565b60405180910390f35b61031a600480360381019061031591906120ce565b610a63565b604051610327919061274e565b60405180910390f35b61034a600480360381019061034591906120ce565b610be9565b6040516103579190612565565b60405180910390f35b610368610c32565b604051610375919061274e565b60405180910390f35b610386610c38565b6040516103939190612565565b60405180910390f35b6103a4610c3e565b005b6103c060048036038101906103bb91906120ce565b610cc6565b6040516103cd919061274e565b60405180910390f35b6103f060048036038101906103eb91906120ce565b610cde565b005b61040c60048036038101906104079190612195565b610d9e565b005b610428600480360381019061042391906120ce565b610e24565b604051610435919061274e565b60405180910390f35b610446610e3c565b6040516104539190612483565b60405180910390f35b61047660048036038101906104719190612155565b610e65565b005b610492600480360381019061048d9190612128565b610f01565b60405161049f919061274e565b60405180910390f35b6104c260048036038101906104bd9190612195565b610f19565b005b6104cc610f9f565b6040516104d9919061274e565b60405180910390f35b6104fc60048036038101906104f791906120ce565b610fa5565b604051610509919061274e565b60405180910390f35b61052c60048036038101906105279190612128565b610fbd565b6040516105399190612483565b60405180910390f35b61054a610ff0565b604051610557919061274e565b60405180910390f35b61057a600480360381019061057591906121ef565b610ff6565b005b610596600480360381019061059191906120ce565b61145a565b005b6105a0611552565b6040516105ad9190612483565b60405180910390f35b6105be611578565b73ffffffffffffffffffffffffffffffffffffffff166105dc610e3c565b73ffffffffffffffffffffffffffffffffffffffff1614610632576040517f08c379a0000000000000000000000000000000000000000000000000000000008152600401610629906126ae565b60405180910390fd5b8060068190555050565b60065481565b6000600260009054906101000a900473ffffffffffffffffffffffffffffffffffffffff1673ffffffffffffffffffffffffffffffffffffffff166370a08231306040518263ffffffff1660e01b815260040161069f9190612483565b60206040518083038186803b1580156106b757600080fd5b505afa1580156106cb573d6000803e3d6000fd5b505050506040513d601f19601f820116820180604052508101906106ef91906121c2565b905090565b6106fc611578565b73ffffffffffffffffffffffffffffffffffffffff1661071a610e3c565b73ffffffffffffffffffffffffffffffffffffffff1614610770576040517f08c379a0000000000000000000000000000000000000000000000000000000008152600401610767906126ae565b60405180910390fd5b80600260009054906101000a900473ffffffffffffffffffffffffffffffffffffffff1673ffffffffffffffffffffffffffffffffffffffff166370a08231306040518263ffffffff1660e01b81526004016107cc9190612483565b60206040518083038186803b1580156107e457600080fd5b505afa1580156107f8573d6000803e3d6000fd5b505050506040513d601f19601f8201168201806040525081019061081c91906121c2565b101561085d576040517f08c379a00000000000000000000000000000000000000000000000000000000081526004016108549061264e565b60405180910390fd5b600260009054906101000a900473ffffffffffffffffffffffffffffffffffffffff1673ffffffffffffffffffffffffffffffffffffffff1663a9059cbb6108a3610e3c565b836040518363ffffffff1660e01b81526004016108c19291906124fe565b602060405180830381600087803b1580156108db57600080fd5b505af11580156108ef573d6000803e3d6000fd5b505050506040513d601f19601f8201168201806040525081019061091391906120fb565b5050565b60045481565b600960009054906101000a900473ffffffffffffffffffffffffffffffffffffffff1681565b60008073ffffffffffffffffffffffffffffffffffffffff168273ffffffffffffffffffffffffffffffffffffffff16141561097e57600080fd5b600b60008373ffffffffffffffffffffffffffffffffffffffff1673ffffffffffffffffffffffffffffffffffffffff168152602001908152602001600020549050919050565b6109cd611578565b73ffffffffffffffffffffffffffffffffffffffff166109eb610e3c565b73ffffffffffffffffffffffffffffffffffffffff1614610a41576040517f08c379a0000000000000000000000000000000000000000000000000000000008152600401610a38906126ae565b60405180910390fd5b8060038190555050565b600d6020528060005260406000206000915090505481565b60006001600e6000600d60008673ffffffffffffffffffffffffffffffffffffffff1673ffffffffffffffffffffffffffffffffffffffff168152602001908152602001600020548152602001908152602001600020541015610afb576040517f08c379a0000000000000000000000000000000000000000000000000000000008152600401610af29061260e565b60405180910390fd5b600e806000600d60008673ffffffffffffffffffffffffffffffffffffffff1673ffffffffffffffffffffffffffffffffffffffff1681526020019081526020016000205481526020019081526020016000205410610b8f576040517f08c379a0000000000000000000000000000000000000000000000000000000008152600401610b869061260e565b60405180910390fd5b600e6000600d60008573ffffffffffffffffffffffffffffffffffffffff1673ffffffffffffffffffffffffffffffffffffffff168152602001908152602001600020548152602001908152602001600020549050919050565b6000600d60008373ffffffffffffffffffffffffffffffffffffffff1673ffffffffffffffffffffffffffffffffffffffff168152602001908152602001600020549050919050565b60035481565b60085481565b610c46611578565b73ffffffffffffffffffffffffffffffffffffffff16610c64610e3c565b73ffffffffffffffffffffffffffffffffffffffff1614610cba576040517f08c379a0000000000000000000000000000000000000000000000000000000008152600401610cb1906126ae565b60405180910390fd5b610cc46000611580565b565b60106020528060005260406000206000915090505481565b610ce6611578565b73ffffffffffffffffffffffffffffffffffffffff16610d04610e3c565b73ffffffffffffffffffffffffffffffffffffffff1614610d5a576040517f08c379a0000000000000000000000000000000000000000000000000000000008152600401610d51906126ae565b60405180910390fd5b80600260006101000a81548173ffffffffffffffffffffffffffffffffffffffff021916908373ffffffffffffffffffffffffffffffffffffffff16021790555050565b610da6611578565b73ffffffffffffffffffffffffffffffffffffffff16610dc4610e3c565b73ffffffffffffffffffffffffffffffffffffffff1614610e1a576040517f08c379a0000000000000000000000000000000000000000000000000000000008152600401610e11906126ae565b60405180910390fd5b8060048190555050565b600b6020528060005260406000206000915090505481565b60008060009054906101000a900473ffffffffffffffffffffffffffffffffffffffff16905090565b7f000000000000000000000000000000000000000000000000000000000000000073ffffffffffffffffffffffffffffffffffffffff163373ffffffffffffffffffffffffffffffffffffffff1614610ef3576040517f08c379a0000000000000000000000000000000000000000000000000000000008152600401610eea906126ce565b60405180910390fd5b610efd8282611644565b5050565b600e6020528060005260406000206000915090505481565b610f21611578565b73ffffffffffffffffffffffffffffffffffffffff16610f3f610e3c565b73ffffffffffffffffffffffffffffffffffffffff1614610f95576040517f08c379a0000000000000000000000000000000000000000000000000000000008152600401610f8c906126ae565b60405180910390fd5b8060058190555050565b60055481565b600c6020528060005260406000206000915090505481565b600f6020528060005260406000206000915054906101000a900473ffffffffffffffffffffffffffffffffffffffff1681565b60075481565b60045483111561103b576040517f08c379a00000000000000000000000000000000000000000000000000000000081526004016110329061272e565b60405180910390fd5b600182101561107f576040517f08c379a00000000000000000000000000000000000000000000000000000000081526004016110769061262e565b60405180910390fd5b600e82106110c2576040517f08c379a00000000000000000000000000000000000000000000000000000000081526004016110b99061262e565b60405180910390fd5b82600260009054906101000a900473ffffffffffffffffffffffffffffffffffffffff1673ffffffffffffffffffffffffffffffffffffffff166370a08231336040518263ffffffff1660e01b815260040161111e9190612483565b60206040518083038186803b15801561113657600080fd5b505afa15801561114a573d6000803e3d6000fd5b505050506040513d601f19601f8201168201806040525081019061116e91906121c2565b10156111af576040517f08c379a00000000000000000000000000000000000000000000000000000000081526004016111a69061268e565b60405180910390fd5b600481106111f2576040517f08c379a00000000000000000000000000000000000000000000000000000000081526004016111e99061270e565b60405180910390fd5b80601060003373ffffffffffffffffffffffffffffffffffffffff1673ffffffffffffffffffffffffffffffffffffffff16815260200190815260200160002081905550600260009054906101000a900473ffffffffffffffffffffffffffffffffffffffff1673ffffffffffffffffffffffffffffffffffffffff166323b872dd3330866040518463ffffffff1660e01b81526004016112959392919061249e565b602060405180830381600087803b1580156112af57600080fd5b505af11580156112c3573d6000803e3d6000fd5b505050506040513d601f19601f820116820180604052508101906112e791906120fb565b50600060018214156113235761131c6103e861130e6103ca876116dc90919063ffffffff16565b6116f290919063ffffffff16565b90506113c3565b600282141561135c576113556103e86113476103d4876116dc90919063ffffffff16565b6116f290919063ffffffff16565b90506113c2565b60038214156113955761138e6103e86113806103de876116dc90919063ffffffff16565b6116f290919063ffffffff16565b90506113c1565b6113be6103e86113b06103c0876116dc90919063ffffffff16565b6116f290919063ffffffff16565b90505b5b5b6113cc33611708565b80600b60003373ffffffffffffffffffffffffffffffffffffffff1673ffffffffffffffffffffffffffffffffffffffff1681526020019081526020016000208190555082600c60003373ffffffffffffffffffffffffffffffffffffffff1673ffffffffffffffffffffffffffffffffffffffff1681526020019081526020016000208190555050505050565b611462611578565b73ffffffffffffffffffffffffffffffffffffffff16611480610e3c565b73ffffffffffffffffffffffffffffffffffffffff16146114d6576040517f08c379a00000000000000000000000000000000000000000000000000000000081526004016114cd906126ae565b60405180910390fd5b600073ffffffffffffffffffffffffffffffffffffffff168173ffffffffffffffffffffffffffffffffffffffff161415611546576040517f08c379a000000000000000000000000000000000000000000000000000000000815260040161153d906125ee565b60405180910390fd5b61154f81611580565b50565b600a60009054906101000a900473ffffffffffffffffffffffffffffffffffffffff1681565b600033905090565b60008060009054906101000a900473ffffffffffffffffffffffffffffffffffffffff169050816000806101000a81548173ffffffffffffffffffffffffffffffffffffffff021916908373ffffffffffffffffffffffffffffffffffffffff1602179055508173ffffffffffffffffffffffffffffffffffffffff168173ffffffffffffffffffffffffffffffffffffffff167f8be0079c531659141344cd1fd0a4f28419497f9722a3daafe3b4186f6b6457e060405160405180910390a35050565b6000600a905080600e60008581526020019081526020016000208190555061169e600f600085815260200190815260200160002060009054906101000a900473ffffffffffffffffffffffffffffffffffffffff166118da565b7f487bf13e5d88ca8eb4a14e229b6ad3371c9627c7a096e6e416d556ac33a7da4c83826040516116cf929190612580565b60405180910390a1505050565b600081836116ea919061281d565b905092915050565b6000818361170091906127ec565b905092915050565b6007547f000000000000000000000000000000000000000000000000000000000000000073ffffffffffffffffffffffffffffffffffffffff166370a08231306040518263ffffffff1660e01b81526004016117649190612483565b60206040518083038186803b15801561177c57600080fd5b505afa158015611790573d6000803e3d6000fd5b505050506040513d601f19601f820116820180604052508101906117b491906121c2565b10156117f5576040517f08c379a00000000000000000000000000000000000000000000000000000000081526004016117ec906126ee565b60405180910390fd5b6000611805600854600754611e95565b905080600d60008473ffffffffffffffffffffffffffffffffffffffff1673ffffffffffffffffffffffffffffffffffffffff1681526020019081526020016000208190555081600f600083815260200190815260200160002060006101000a81548173ffffffffffffffffffffffffffffffffffffffff021916908373ffffffffffffffffffffffffffffffffffffffff1602179055507faede8a84bd70912adc412a1c86f3aa87a32e75e15b66e8d2c6139982e127777682826040516118ce9291906124d5565b60405180910390a15050565b600073ffffffffffffffffffffffffffffffffffffffff168173ffffffffffffffffffffffffffffffffffffffff16141561194a576040517f08c379a00000000000000000000000000000000000000000000000000000000081526004016119419061266e565b60405180910390fd5b600161195582610a63565b141580156119a9575061196781610a63565b600c60008373ffffffffffffffffffffffffffffffffffffffff1673ffffffffffffffffffffffffffffffffffffffff16815260200190815260200160002054145b15611dc85760006001601060008473ffffffffffffffffffffffffffffffffffffffff1673ffffffffffffffffffffffffffffffffffffffff168152602001908152602001600020541415611a7b57611a746103e8611a6661044c611a58600354600b60008973ffffffffffffffffffffffffffffffffffffffff1673ffffffffffffffffffffffffffffffffffffffff168152602001908152602001600020546116dc90919063ffffffff16565b6116dc90919063ffffffff16565b6116f290919063ffffffff16565b9050611c6a565b6002601060008473ffffffffffffffffffffffffffffffffffffffff1673ffffffffffffffffffffffffffffffffffffffff168152602001908152602001600020541415611b4657611b3f6103e8611b316104b0611b23600354600b60008973ffffffffffffffffffffffffffffffffffffffff1673ffffffffffffffffffffffffffffffffffffffff168152602001908152602001600020546116dc90919063ffffffff16565b6116dc90919063ffffffff16565b6116f290919063ffffffff16565b9050611c69565b6003601060008473ffffffffffffffffffffffffffffffffffffffff1673ffffffffffffffffffffffffffffffffffffffff168152602001908152602001600020541415611c1157611c0a6103e8611bfc610514611bee600354600b60008973ffffffffffffffffffffffffffffffffffffffff1673ffffffffffffffffffffffffffffffffffffffff168152602001908152602001600020546116dc90919063ffffffff16565b6116dc90919063ffffffff16565b6116f290919063ffffffff16565b9050611c68565b611c65600354600b60008573ffffffffffffffffffffffffffffffffffffffff1673ffffffffffffffffffffffffffffffffffffffff168152602001908152602001600020546116dc90919063ffffffff16565b90505b5b5b600260009054906101000a900473ffffffffffffffffffffffffffffffffffffffff1673ffffffffffffffffffffffffffffffffffffffff166340c10f1983836040518363ffffffff1660e01b8152600401611cc79291906124fe565b600060405180830381600087803b158015611ce157600080fd5b505af1158015611cf5573d6000803e3d6000fd5b50505050600c60008373ffffffffffffffffffffffffffffffffffffffff1673ffffffffffffffffffffffffffffffffffffffff16815260200190815260200160002060009055600b60008373ffffffffffffffffffffffffffffffffffffffff1673ffffffffffffffffffffffffffffffffffffffff16815260200190815260200160002060009055600d60008373ffffffffffffffffffffffffffffffffffffffff1673ffffffffffffffffffffffffffffffffffffffff1681526020019081526020016000206000905550611e92565b600c60008273ffffffffffffffffffffffffffffffffffffffff1673ffffffffffffffffffffffffffffffffffffffff16815260200190815260200160002060009055600b60008273ffffffffffffffffffffffffffffffffffffffff1673ffffffffffffffffffffffffffffffffffffffff16815260200190815260200160002060009055600d60008273ffffffffffffffffffffffffffffffffffffffff1673ffffffffffffffffffffffffffffffffffffffff168152602001908152602001600020600090555b50565b60007f000000000000000000000000000000000000000000000000000000000000000073ffffffffffffffffffffffffffffffffffffffff16634000aea07f000000000000000000000000000000000000000000000000000000000000000084866000604051602001611f09929190612580565b6040516020818303038152906040526040518463ffffffff1660e01b8152600401611f3693929190612527565b602060405180830381600087803b158015611f5057600080fd5b505af1158015611f64573d6000803e3d6000fd5b505050506040513d601f19601f82011682018060405250810190611f8891906120fb565b506000611fab846000306001600089815260200190815260200160002054611ff6565b9050600180600086815260200190815260200160002054611fcc9190612796565b6001600086815260200190815260200160002081905550611fed8482612032565b91505092915050565b60008484848460405160200161200f94939291906125a9565b6040516020818303038152906040528051906020012060001c9050949350505050565b60008282604051602001612047929190612457565b60405160208183030381529060405280519060200120905092915050565b60008135905061207481612c2b565b92915050565b60008151905061208981612c42565b92915050565b60008135905061209e81612c59565b92915050565b6000813590506120b381612c70565b92915050565b6000815190506120c881612c70565b92915050565b6000602082840312156120e4576120e361296e565b5b60006120f284828501612065565b91505092915050565b6000602082840312156121115761211061296e565b5b600061211f8482850161207a565b91505092915050565b60006020828403121561213e5761213d61296e565b5b600061214c8482850161208f565b91505092915050565b6000806040838503121561216c5761216b61296e565b5b600061217a8582860161208f565b925050602061218b858286016120a4565b9150509250929050565b6000602082840312156121ab576121aa61296e565b5b60006121b9848285016120a4565b91505092915050565b6000602082840312156121d8576121d761296e565b5b60006121e6848285016120b9565b91505092915050565b6000806000606084860312156122085761220761296e565b5b6000612216868287016120a4565b9350506020612227868287016120a4565b9250506040612238868287016120a4565b9150509250925092565b61224b81612877565b82525050565b61225a81612895565b82525050565b61227161226c82612895565b6128fc565b82525050565b600061228282612769565b61228c8185612774565b935061229c8185602086016128c9565b6122a581612973565b840191505092915050565b60006122bd602683612785565b91506122c882612984565b604082019050919050565b60006122e0602783612785565b91506122eb826129d3565b604082019050919050565b6000612303602483612785565b915061230e82612a22565b604082019050919050565b6000612326602283612785565b915061233182612a71565b604082019050919050565b6000612349601783612785565b915061235482612ac0565b602082019050919050565b600061236c602683612785565b915061237782612ae9565b604082019050919050565b600061238f602083612785565b915061239a82612b38565b602082019050919050565b60006123b2601f83612785565b91506123bd82612b61565b602082019050919050565b60006123d5601083612785565b91506123e082612b8a565b602082019050919050565b60006123f8601a83612785565b915061240382612bb3565b602082019050919050565b600061241b603083612785565b915061242682612bdc565b604082019050919050565b61243a816128bf565b82525050565b61245161244c826128bf565b612906565b82525050565b60006124638285612260565b6020820191506124738284612440565b6020820191508190509392505050565b60006020820190506124986000830184612242565b92915050565b60006060820190506124b36000830186612242565b6124c06020830185612242565b6124cd6040830184612431565b949350505050565b60006040820190506124ea6000830185612242565b6124f76020830184612251565b9392505050565b60006040820190506125136000830185612242565b6125206020830184612431565b9392505050565b600060608201905061253c6000830186612242565b6125496020830185612431565b818103604083015261255b8184612277565b9050949350505050565b600060208201905061257a6000830184612251565b92915050565b60006040820190506125956000830185612251565b6125a26020830184612431565b9392505050565b60006080820190506125be6000830187612251565b6125cb6020830186612431565b6125d86040830185612242565b6125e56060830184612431565b95945050505050565b60006020820190508181036000830152612607816122b0565b9050919050565b60006020820190508181036000830152612627816122d3565b9050919050565b60006020820190508181036000830152612647816122f6565b9050919050565b6000602082019050818103600083015261266781612319565b9050919050565b600060208201905081810360008301526126878161233c565b9050919050565b600060208201905081810360008301526126a78161235f565b9050919050565b600060208201905081810360008301526126c781612382565b9050919050565b600060208201905081810360008301526126e7816123a5565b9050919050565b60006020820190508181036000830152612707816123c8565b9050919050565b60006020820190508181036000830152612727816123eb565b9050919050565b600060208201905081810360008301526127478161240e565b9050919050565b60006020820190506127636000830184612431565b92915050565b600081519050919050565b600082825260208201905092915050565b600082825260208201905092915050565b60006127a1826128bf565b91506127ac836128bf565b9250827fffffffffffffffffffffffffffffffffffffffffffffffffffffffffffffffff038211156127e1576127e0612910565b5b828201905092915050565b60006127f7826128bf565b9150612802836128bf565b9250826128125761281161293f565b5b828204905092915050565b6000612828826128bf565b9150612833836128bf565b9250817fffffffffffffffffffffffffffffffffffffffffffffffffffffffffffffffff048311821515161561286c5761286b612910565b5b828202905092915050565b60006128828261289f565b9050919050565b60008115159050919050565b6000819050919050565b600073ffffffffffffffffffffffffffffffffffffffff82169050919050565b6000819050919050565b60005b838110156128e75780820151818401526020810190506128cc565b838111156128f6576000848401525b50505050565b6000819050919050565b6000819050919050565b7f4e487b7100000000000000000000000000000000000000000000000000000000600052601160045260246000fd5b7f4e487b7100000000000000000000000000000000000000000000000000000000600052601260045260246000fd5b600080fd5b6000601f19601f8301169050919050565b7f4f776e61626c653a206e6577206f776e657220697320746865207a65726f206160008201527f6464726573730000000000000000000000000000000000000000000000000000602082015250565b7f52616e646f6d206e756d626572206d757374206265206265747765656e20312060008201527f616e642031332e00000000000000000000000000000000000000000000000000602082015250565b7f4d756c7469706c696572206d757374206265206265747765656e203120616e6460008201527f2031332e00000000000000000000000000000000000000000000000000000000602082015250565b7f4e6f7420656e6f75676820244c4c544820696e2067616d6527732077616c6c6560008201527f742e000000000000000000000000000000000000000000000000000000000000602082015250565b7f416464726573732063616e6e6f74206265206e756c6c2e000000000000000000600082015250565b7f4e6f7420656e6f75676820244c4c544820746f6b656e20696e20796f7572207760008201527f616c6c65742e0000000000000000000000000000000000000000000000000000602082015250565b7f4f776e61626c653a2063616c6c6572206973206e6f7420746865206f776e6572600082015250565b7f4f6e6c7920565246436f6f7264696e61746f722063616e2066756c66696c6c00600082015250565b7f4e6f7420656e6f756768204c494e4b2e00000000000000000000000000000000600082015250565b7f537061776e206d757374206265206c657373207468616e20342e000000000000600082015250565b7f42657420616d6f756e74206d757374206265206c657373207468616e2074686560008201527f206d61782062657420616d6f756e742e00000000000000000000000000000000602082015250565b612c3481612877565b8114612c3f57600080fd5b50565b612c4b81612889565b8114612c5657600080fd5b50565b612c6281612895565b8114612c6d57600080fd5b50565b612c79816128bf565b8114612c8457600080fd5b5056fea2646970667358221220ce9e192dd1356862b21cdffc2f8346719b5dc2b480d8791798ecdf238e4adb6a64736f6c63430008070033",
  "immutableReferences": {
    "73": [
      {
        "length": 32,
        "start": 5901
      },
      {
        "length": 32,
        "start": 7833
      }
    ],
    "75": [
      {
        "length": 32,
        "start": 3687
      },
      {
        "length": 32,
        "start": 7893
      }
    ]
  },
  "source": "/**\n *   _____________   _______ _____ ___________ ________  ________ _   _ ______\n *  /  __ | ___ \\ \\ / | ___ |_   _|  _  |  _  |  ___|  \\/  |  _  | \\ | |___  /\n *  | /  \\| |_/ /\\ V /| |_/ / | | | | | | | | | |__ |      | | | |  \\| |  / /\n *  | |   |    /  \\ / |  __/  | | | | | | | | |  __|| |\\/| | | | |     | / /\n *  \\ \\__/| |\\ \\  | | | |     | | \\ \\_/ | |/ /| |___| |  | \\ \\_/ | |\\  |/ /___\n *   \\____\\_| \\_| \\_/ \\_|     \\_/  \\___/|___/ \\____/\\_|  |_/\\___/\\_| \\_\\_____/\n *\n *\n *  #CryptoDemonz, Wheel of Fortune\n *\n * Its a wheel with 13 segments, each segment defines a value like 2, 3, , 12, 13, and it has a wild segment which pays 0.\n * The player can place a bet and has to figure out which multiplier will be the result when the wheel is stopped.\n * After betting, the wheel starts spinning and spinning, then it stops.\n * Anyone who successfully figured out the winning multiplier where the wheels stopped, gets the prize: bet amount x 12.\n * Otherwise, the player loses their bet.\n *\n */\n\n// SPDX-License-Identifier: MIT\npragma solidity ^0.8.7;\n\nimport \"@openzeppelin/contracts/token/ERC20/IERC20.sol\";\nimport \"@openzeppelin/contracts/token/ERC20/utils/SafeERC20.sol\";\nimport \"@openzeppelin/contracts/utils/Address.sol\";\nimport \"@openzeppelin/contracts/access/Ownable.sol\";\nimport \"@openzeppelin/contracts/utils/math/SafeMath.sol\";\nimport \"@chainlink/contracts/src/v0.8/VRFConsumerBase.sol\";\nimport \"./LLTH.sol\";\n\ncontract Wheel is Ownable, VRFConsumerBase {\n    using SafeMath for uint256;\n    using Address for address;\n\n    // instance of $LLTH token\n    LLTH internal _LLTH;\n\n    // payout multiplier\n    uint256 public payoutMultiplier = 12;\n\n    // maximum value that can be placed as bets\n    uint256 public maxBet = 10000 * 10**18;\n\n    // minimum value of the wheel segment multiplier\n    uint256 public minMultiplier = 1; // 1 - WILD\n\n    // maximum value of the wheel segment multiplier\n    uint256 public maxMultiplier = 13;\n\n    // fee required to fulfill a VRF request\n    uint256 public fee;\n\n    // public key against which randomness is generated\n    bytes32 public keyHash;\n\n    // the address of the smart contract which verifies if the numbers returned from Chainlink are actually random\n    address public VRFCoordinator = 0x8C7382F9D8f56b33781fE506E897a4F1e2d17255;\n\n    // LINK token's address\n    address public LINKToken = 0x326C977E6efc84E512bB9C30f76E30c160eD06FB;\n\n    // bets of players\n    mapping(address => uint256) public bets;\n\n    // multipliers of players\n    mapping(address => uint256) public multipliers;\n\n    // mapping of player's address to requestId\n    mapping(address => bytes32) public addressToRequestId;\n\n    // mapping of requestId to the returned random number\n    mapping(bytes32 => uint256) public requestIdToRandomNumber;\n\n    // mapping of requestId to player's address\n    mapping(bytes32 => address) public requestIdToAddress;\n\n    // mapping to player's spawn holdings (Spawn1 - 1, Spawn2 - 2, Spawn - 3)\n    mapping(address => uint256) public addressToSpawn;\n\n    // sending random number for front-end\n    event RandomIsArrived(bytes32 requestId, uint256 randomNumber);\n\n    // sending request ID for front-end\n    event RequestIdIsCreated(address player, bytes32 requestId);\n\n    //-------------------------------------------------------------------------\n    // CONSTRUCTOR\n    //-------------------------------------------------------------------------\n\n    constructor(address LLTH_) VRFConsumerBase(VRFCoordinator, LINKToken) {\n        _LLTH = LLTH(LLTH_);\n        keyHash = 0x6e75b569a01ef56d18cab6a8e71e6600d6ce853834d4a5748b720d06f878b3a4;\n        fee = 0.0001 * 10**18; // 0.0001 LINK\n    }\n\n    //-------------------------------------------------------------------------\n    // VIEW FUNCTIONS\n    //-------------------------------------------------------------------------\n\n    function requestIdOf(address player) external view returns (bytes32) {\n        return addressToRequestId[player];\n    }\n\n    function getBalance() external view returns (uint256) {\n        return _LLTH.balanceOf(address(this));\n    }\n\n    function betOf(address player) external view returns (uint256) {\n        require(player != address(0));\n        return bets[player];\n    }\n\n    //-------------------------------------------------------------------------\n    // SET FUNCTIONS\n    //-------------------------------------------------------------------------\n\n    function setLLTH(address LLTH_) external onlyOwner {\n        _LLTH = LLTH(LLTH_);\n    }\n\n    function setMinMultiplier(uint256 minMultiplier_) external onlyOwner {\n        minMultiplier = minMultiplier_;\n    }\n\n    function setMaxMultiplier(uint256 maxMultiplier_) external onlyOwner {\n        maxMultiplier = maxMultiplier_;\n    }\n\n    function setMaxBet(uint256 maxBet_) external onlyOwner {\n        maxBet = maxBet_;\n    }\n\n    function setPayoutMultiplier(uint256 payoutMultiplier_) external onlyOwner {\n        payoutMultiplier = payoutMultiplier_;\n    }\n\n    //-------------------------------------------------------------------------\n    // INTERNAL FUNCTIONS\n    //-------------------------------------------------------------------------\n\n    // Transfers prize, resets mappings and array.\n    function closeRound(address player) internal {\n        require(player != address(0), \"Address cannot be null.\");\n\n        if (\n            getWinningMultiplier(player) != 1 &&\n            multipliers[player] == getWinningMultiplier(player)\n        ) {\n            uint256 amount;\n\n            if (addressToSpawn[player] == 1) {\n                amount = bets[player].mul(payoutMultiplier).mul(1100).div(1000); // Spawn1 - 1.1x\n            } else if (addressToSpawn[player] == 2) {\n                amount = bets[player].mul(payoutMultiplier).mul(1200).div(1000); // Spawn2 - 1.2x\n            } else if (addressToSpawn[player] == 3) {\n                amount = bets[player].mul(payoutMultiplier).mul(1300).div(1000); // Spawn3 - 1.3x\n            } else {\n                amount = bets[player].mul(payoutMultiplier);\n            }\n\n            _LLTH.mint(player, amount);\n\n            delete multipliers[player];\n            delete bets[player];\n            delete addressToRequestId[player];\n        } else {\n            delete multipliers[player];\n            delete bets[player];\n            delete addressToRequestId[player];\n        }\n    }\n\n    //-------------------------------------------------------------------------\n    // EXTERNAL FUNCTIONS\n    //-------------------------------------------------------------------------\n\n    // Called by front-end when placing bet. It saves player's data and tranfers their bet to this contract's address.\n    function placeBet(\n        uint256 bet,\n        uint256 multiplier,\n        uint256 spawn\n    ) external {\n        require(\n            bet <= maxBet,\n            \"Bet amount must be less than the max bet amount.\"\n        );\n        require(multiplier >= 1, \"Multiplier must be between 1 and 13.\");\n        require(multiplier < 14, \"Multiplier must be between 1 and 13.\");\n        require(\n            _LLTH.balanceOf(address(msg.sender)) >= bet,\n            \"Not enough $LLTH token in your wallet.\"\n        );\n        require(spawn < 4, \"Spawn must be less than 4.\");\n\n        addressToSpawn[msg.sender] = spawn;\n        _LLTH.transferFrom(msg.sender, address(this), bet);\n\n        uint256 amount;\n        // fee\n        if (spawn == 1) {\n            amount = bet.mul(970).div(1000); // Spawn1 - 3%\n        } else if (spawn == 2) {\n            amount = bet.mul(980).div(1000); // Spawn2 - 2%\n        } else if (spawn == 3) {\n            amount = bet.mul(990).div(1000); // Spawn3 - 1%\n        } else {\n            amount = bet.mul(960).div(1000); // Non-holder - 4%\n        }\n\n        getRandomNumber(msg.sender);\n        bets[msg.sender] = amount;\n        multipliers[msg.sender] = multiplier;\n    }\n\n    function withdraw(uint256 amount) external onlyOwner {\n        require(\n            _LLTH.balanceOf(address(this)) >= amount,\n            \"Not enough $LLTH in game's wallet.\"\n        );\n\n        _LLTH.transfer(owner(), amount);\n    }\n\n    //-------------------------------------------------------------------------\n    // RANDOM NUMBER FUNCTIONS\n    //-------------------------------------------------------------------------\n\n    function getRandomNumber(address player) internal {\n        require(LINK.balanceOf(address(this)) >= fee, \"Not enough LINK.\");\n        bytes32 requestId = requestRandomness(keyHash, fee);\n        addressToRequestId[player] = requestId;\n        requestIdToAddress[requestId] = player;\n\n        emit RequestIdIsCreated(player, requestId);\n    }\n\n    function fulfillRandomness(bytes32 requestId, uint256 randomness)\n        internal\n        override\n    {\n        /*\n        uint256 randomNumber = (randomness %\n            (maxMultiplier.add(1) - minMultiplier)) + minMultiplier; // random number between 1 and 13\n        requestIdToRandomNumber[requestId] = randomNumber;*/\n\n        uint256 randomNumber = 10;\n        requestIdToRandomNumber[requestId] = randomNumber;\n\n        closeRound(requestIdToAddress[requestId]);\n\n        emit RandomIsArrived(requestId, randomNumber);\n    }\n\n    function getWinningMultiplier(address player)\n        public\n        view\n        returns (uint256)\n    {\n        require(\n            requestIdToRandomNumber[addressToRequestId[player]] >= 1,\n            \"Random number must be between 1 and 13.\"\n        );\n        require(\n            requestIdToRandomNumber[addressToRequestId[player]] < 14,\n            \"Random number must be between 1 and 13.\"\n        );\n\n        return requestIdToRandomNumber[addressToRequestId[player]];\n    }\n}\n",
  "sourcePath": "/home/levi/wheel_typescript/contracts/Wheel.sol",
  "compiler": {
    "name": "solc",
    "version": "0.8.7+commit.e28d00a7.Emscripten.clang"
  },
  "schemaVersion": "3.4.1",
  "updatedAt": "2021-11-01T14:15:39.713Z",
  "networkType": "ethereum",
  "devdoc": {
    "kind": "dev",
    "methods": {
      "owner()": {
        "details": "Returns the address of the current owner."
      },
      "renounceOwnership()": {
        "details": "Leaves the contract without owner. It will not be possible to call `onlyOwner` functions anymore. Can only be called by the current owner. NOTE: Renouncing ownership will leave the contract without an owner, thereby removing any functionality that is only available to the owner."
      },
      "transferOwnership(address)": {
        "details": "Transfers ownership of the contract to a new account (`newOwner`). Can only be called by the current owner."
      }
    },
    "version": 1
  },
  "userdoc": {
    "kind": "user",
    "methods": {},
    "version": 1
  }
}